{
  "contractName": "SypplyChain",
  "abi": [
    {
      "anonymous": false,
      "inputs": [
        {
          "indexed": false,
          "internalType": "uint256",
          "name": "index",
          "type": "uint256"
        },
        {
          "indexed": true,
          "internalType": "address",
          "name": "supplier",
          "type": "address"
        },
        {
          "indexed": true,
          "internalType": "address",
          "name": "deliveryCompany",
          "type": "address"
        }
      ],
      "name": "OrderAccepted",
      "type": "event"
    },
    {
      "anonymous": false,
      "inputs": [
        {
          "indexed": false,
          "internalType": "uint256",
          "name": "index",
          "type": "uint256"
        },
        {
          "indexed": true,
          "internalType": "address",
          "name": "deliveryCompany",
          "type": "address"
        },
        {
          "indexed": true,
          "internalType": "address",
          "name": "customer",
          "type": "address"
        }
      ],
      "name": "OrderCreated",
      "type": "event"
    },
    {
      "anonymous": false,
      "inputs": [
        {
          "indexed": false,
          "internalType": "uint256",
          "name": "index",
          "type": "uint256"
        },
        {
          "indexed": true,
          "internalType": "address",
          "name": "supplier",
          "type": "address"
        },
        {
          "indexed": true,
          "internalType": "address",
          "name": "deliveryCompany",
          "type": "address"
        }
      ],
      "name": "OrderDecliened",
      "type": "event"
    },
    {
      "anonymous": false,
      "inputs": [
        {
          "indexed": false,
          "internalType": "uint256",
          "name": "index",
          "type": "uint256"
        },
        {
          "indexed": true,
          "internalType": "address",
          "name": "deliveryCompany",
          "type": "address"
        },
        {
          "indexed": true,
          "internalType": "address",
          "name": "customer",
          "type": "address"
        }
      ],
      "name": "OrderDelivered",
      "type": "event"
    },
    {
      "anonymous": false,
      "inputs": [
        {
          "indexed": false,
          "internalType": "uint256",
          "name": "index",
          "type": "uint256"
        },
        {
          "indexed": true,
          "internalType": "address",
          "name": "deliveryCompany",
          "type": "address"
        },
        {
          "indexed": true,
          "internalType": "address",
          "name": "customer",
          "type": "address"
        }
      ],
      "name": "OrderDelivering",
      "type": "event"
    },
    {
      "inputs": [
        {
          "internalType": "address",
          "name": "",
          "type": "address"
        },
        {
          "internalType": "uint256",
          "name": "",
          "type": "uint256"
        }
      ],
      "name": "selfOrders",
      "outputs": [
        {
          "internalType": "uint256",
          "name": "",
          "type": "uint256"
        }
      ],
      "stateMutability": "view",
      "type": "function"
    },
    {
      "inputs": [],
      "name": "getOrderLength",
      "outputs": [
        {
          "internalType": "uint256",
          "name": "",
          "type": "uint256"
        }
      ],
      "stateMutability": "view",
      "type": "function"
    },
    {
      "inputs": [
        {
          "internalType": "uint256",
          "name": "_index",
          "type": "uint256"
        }
      ],
      "name": "getOrder",
      "outputs": [
        {
          "internalType": "string",
          "name": "",
          "type": "string"
        },
        {
          "internalType": "string",
          "name": "",
          "type": "string"
        },
        {
          "internalType": "address",
          "name": "",
          "type": "address"
        },
        {
          "internalType": "address",
          "name": "",
          "type": "address"
        },
        {
          "internalType": "address",
          "name": "",
          "type": "address"
        },
        {
          "internalType": "enum SypplyChain.Status",
          "name": "",
          "type": "uint8"
        }
      ],
      "stateMutability": "view",
      "type": "function"
    },
    {
      "inputs": [
        {
          "internalType": "address",
          "name": "_address",
          "type": "address"
        }
      ],
      "name": "getSelfOrdersLength",
      "outputs": [
        {
          "internalType": "uint256",
          "name": "",
          "type": "uint256"
        }
      ],
      "stateMutability": "view",
      "type": "function"
    },
    {
      "inputs": [
        {
          "internalType": "string",
          "name": "_title",
          "type": "string"
        },
        {
          "internalType": "string",
          "name": "_description",
          "type": "string"
        },
        {
          "internalType": "address",
          "name": "_deliveryCompany",
          "type": "address"
        },
        {
          "internalType": "address",
          "name": "_customer",
          "type": "address"
        }
      ],
      "name": "createOrder",
      "outputs": [],
      "stateMutability": "nonpayable",
      "type": "function"
    },
    {
      "inputs": [
        {
          "internalType": "uint256",
          "name": "_index",
          "type": "uint256"
        }
      ],
      "name": "startDeliveringOrder",
      "outputs": [],
      "stateMutability": "nonpayable",
      "type": "function"
    },
    {
      "inputs": [
        {
          "internalType": "uint256",
          "name": "_index",
          "type": "uint256"
        }
      ],
      "name": "stopDeliveringOrder",
      "outputs": [],
      "stateMutability": "nonpayable",
      "type": "function"
    },
    {
      "inputs": [
        {
          "internalType": "uint256",
          "name": "_index",
          "type": "uint256"
        }
      ],
      "name": "acceptOrder",
      "outputs": [],
      "stateMutability": "nonpayable",
      "type": "function"
    },
    {
      "inputs": [
        {
          "internalType": "uint256",
          "name": "_index",
          "type": "uint256"
        }
      ],
      "name": "declineOrder",
      "outputs": [],
      "stateMutability": "nonpayable",
      "type": "function"
    }
  ],
  "bytecode": "0x608060405234801561001057600080fd5b506116de806100206000396000f3fe608060405234801561001057600080fd5b50600436106100935760003560e01c8063a9d1af8811610066578063a9d1af881461011e578063aa6e2a721461014e578063ccbdb85c1461016a578063d09ef24114610186578063ef18e9ed146101bb57610093565b80633ad14ed2146100985780636c484042146100c857806384e9d538146100e45780639d4971b714610100575b600080fd5b6100b260048036038101906100ad91906111bc565b6101d7565b6040516100bf9190611202565b60405180910390f35b6100e260048036038101906100dd9190611249565b610223565b005b6100fe60048036038101906100f99190611249565b61040a565b005b6101086105f1565b6040516101159190611202565b60405180910390f35b61013860048036038101906101339190611276565b6105fd565b6040516101459190611202565b60405180910390f35b610168600480360381019061016391906113fc565b61062e565b005b610184600480360381019061017f9190611249565b6109c9565b005b6101a0600480360381019061019b9190611249565b610bd1565b6040516101b2969594939291906115a9565b60405180910390f35b6101d560048036038101906101d09190611249565b610e9f565b005b6000600160008373ffffffffffffffffffffffffffffffffffffffff1673ffffffffffffffffffffffffffffffffffffffff168152602001908152602001600020805490509050919050565b803373ffffffffffffffffffffffffffffffffffffffff166000828154811061024f5761024e611618565b5b906000526020600020906005020160030160009054906101000a900473ffffffffffffffffffffffffffffffffffffffff1673ffffffffffffffffffffffffffffffffffffffff16146102a157600080fd5b81600160048111156102b6576102b5611532565b5b600082815481106102ca576102c9611618565b5b906000526020600020906005020160040160149054906101000a900460ff1660048111156102fb576102fa611532565b5b1461030557600080fd5b600080848154811061031a57610319611618565b5b906000526020600020906005020190508060040160009054906101000a900473ffffffffffffffffffffffffffffffffffffffff1673ffffffffffffffffffffffffffffffffffffffff168160020160009054906101000a900473ffffffffffffffffffffffffffffffffffffffff1673ffffffffffffffffffffffffffffffffffffffff167fdc1e5c46473f967c85111ae5c5574dd672193f524398a75ee01ff59586c224a6866040516103cf9190611202565b60405180910390a360028160040160146101000a81548160ff021916908360048111156103ff576103fe611532565b5b021790555050505050565b803373ffffffffffffffffffffffffffffffffffffffff166000828154811061043657610435611618565b5b906000526020600020906005020160030160009054906101000a900473ffffffffffffffffffffffffffffffffffffffff1673ffffffffffffffffffffffffffffffffffffffff161461048857600080fd5b816000600481111561049d5761049c611532565b5b600082815481106104b1576104b0611618565b5b906000526020600020906005020160040160149054906101000a900460ff1660048111156104e2576104e1611532565b5b146104ec57600080fd5b600080848154811061050157610500611618565b5b906000526020600020906005020190508060040160009054906101000a900473ffffffffffffffffffffffffffffffffffffffff1673ffffffffffffffffffffffffffffffffffffffff168160020160009054906101000a900473ffffffffffffffffffffffffffffffffffffffff1673ffffffffffffffffffffffffffffffffffffffff167f8f3a13f55e685e5c9e7796435daa54d081fdc930d7079309a7b178fc4fb3cc2f866040516105b69190611202565b60405180910390a360018160040160146101000a81548160ff021916908360048111156105e6576105e5611532565b5b021790555050505050565b60008080549050905090565b6001602052816000526040600020818154811061061957600080fd5b90600052602060002001600091509150505481565b60006040518060c001604052808681526020018581526020013373ffffffffffffffffffffffffffffffffffffffff1681526020018473ffffffffffffffffffffffffffffffffffffffff1681526020018373ffffffffffffffffffffffffffffffffffffffff168152602001600060048111156106af576106ae611532565b5b81525090506000808054905090508273ffffffffffffffffffffffffffffffffffffffff168473ffffffffffffffffffffffffffffffffffffffff167fd4e0aaf5be9b8773c644dfebba8b63f878965712ad8589d85ca4bc9d1b671e2c8360405161071a9190611202565b60405180910390a36000829080600181540180825580915050600190039060005260206000209060050201600090919091909150600082015181600001908051906020019061076a9291906110a7565b5060208201518160010190805190602001906107879291906110a7565b5060408201518160020160006101000a81548173ffffffffffffffffffffffffffffffffffffffff021916908373ffffffffffffffffffffffffffffffffffffffff16021790555060608201518160030160006101000a81548173ffffffffffffffffffffffffffffffffffffffff021916908373ffffffffffffffffffffffffffffffffffffffff16021790555060808201518160040160006101000a81548173ffffffffffffffffffffffffffffffffffffffff021916908373ffffffffffffffffffffffffffffffffffffffff16021790555060a08201518160040160146101000a81548160ff0219169083600481111561088857610887611532565b5b02179055505050600160003373ffffffffffffffffffffffffffffffffffffffff1673ffffffffffffffffffffffffffffffffffffffff168152602001908152602001600020819080600181540180825580915050600190039060005260206000200160009091909190915055600160008573ffffffffffffffffffffffffffffffffffffffff1673ffffffffffffffffffffffffffffffffffffffff168152602001908152602001600020819080600181540180825580915050600190039060005260206000200160009091909190915055600160008473ffffffffffffffffffffffffffffffffffffffff1673ffffffffffffffffffffffffffffffffffffffff168152602001908152602001600020819080600181540180825580915050600190039060005260206000200160009091909190915055505050505050565b803373ffffffffffffffffffffffffffffffffffffffff16600082815481106109f5576109f4611618565b5b906000526020600020906005020160040160009054906101000a900473ffffffffffffffffffffffffffffffffffffffff1673ffffffffffffffffffffffffffffffffffffffff1614610a4757600080fd5b8160026004811115610a5c57610a5b611532565b5b60008281548110610a7057610a6f611618565b5b906000526020600020906005020160040160149054906101000a900460ff166004811115610aa157610aa0611532565b5b14610aab57600080fd5b6000808481548110610ac057610abf611618565b5b906000526020600020906005020190508060030160009054906101000a900473ffffffffffffffffffffffffffffffffffffffff1673ffffffffffffffffffffffffffffffffffffffff168160020160009054906101000a900473ffffffffffffffffffffffffffffffffffffffff1673ffffffffffffffffffffffffffffffffffffffff167fbd40f997bcc363e9241a0a564e708e94c5a972d06e12431d657f8c1f6aa3638386604051610b759190611202565b60405180910390a3600460008581548110610b9357610b92611618565b5b906000526020600020906005020160040160146101000a81548160ff02191690836004811115610bc657610bc5611532565b5b021790555050505050565b6060806000806000806000808881548110610bef57610bee611618565b5b90600052602060002090600502016040518060c0016040529081600082018054610c1890611676565b80601f0160208091040260200160405190810160405280929190818152602001828054610c4490611676565b8015610c915780601f10610c6657610100808354040283529160200191610c91565b820191906000526020600020905b815481529060010190602001808311610c7457829003601f168201915b50505050508152602001600182018054610caa90611676565b80601f0160208091040260200160405190810160405280929190818152602001828054610cd690611676565b8015610d235780601f10610cf857610100808354040283529160200191610d23565b820191906000526020600020905b815481529060010190602001808311610d0657829003601f168201915b505050505081526020016002820160009054906101000a900473ffffffffffffffffffffffffffffffffffffffff1673ffffffffffffffffffffffffffffffffffffffff1673ffffffffffffffffffffffffffffffffffffffff1681526020016003820160009054906101000a900473ffffffffffffffffffffffffffffffffffffffff1673ffffffffffffffffffffffffffffffffffffffff1673ffffffffffffffffffffffffffffffffffffffff1681526020016004820160009054906101000a900473ffffffffffffffffffffffffffffffffffffffff1673ffffffffffffffffffffffffffffffffffffffff1673ffffffffffffffffffffffffffffffffffffffff1681526020016004820160149054906101000a900460ff166004811115610e5357610e52611532565b5b6004811115610e6557610e64611532565b5b815250509050806000015181602001518260400151836060015184608001518560a001519650965096509650965096505091939550919395565b803373ffffffffffffffffffffffffffffffffffffffff1660008281548110610ecb57610eca611618565b5b906000526020600020906005020160040160009054906101000a900473ffffffffffffffffffffffffffffffffffffffff1673ffffffffffffffffffffffffffffffffffffffff1614610f1d57600080fd5b8160026004811115610f3257610f31611532565b5b60008281548110610f4657610f45611618565b5b906000526020600020906005020160040160149054906101000a900460ff166004811115610f7757610f76611532565b5b14610f8157600080fd5b6000808481548110610f9657610f95611618565b5b906000526020600020906005020190508060030160009054906101000a900473ffffffffffffffffffffffffffffffffffffffff1673ffffffffffffffffffffffffffffffffffffffff168160020160009054906101000a900473ffffffffffffffffffffffffffffffffffffffff1673ffffffffffffffffffffffffffffffffffffffff167f8ae2f67332c70e85a9bd2dc029a84b58b0e0b37eed94bb01fe19283e259f85928660405161104b9190611202565b60405180910390a360036000858154811061106957611068611618565b5b906000526020600020906005020160040160146101000a81548160ff0219169083600481111561109c5761109b611532565b5b021790555050505050565b8280546110b390611676565b90600052602060002090601f0160209004810192826110d5576000855561111c565b82601f106110ee57805160ff191683800117855561111c565b8280016001018555821561111c579182015b8281111561111b578251825591602001919060010190611100565b5b509050611129919061112d565b5090565b5b8082111561114657600081600090555060010161112e565b5090565b6000604051905090565b600080fd5b600080fd5b600073ffffffffffffffffffffffffffffffffffffffff82169050919050565b60006111898261115e565b9050919050565b6111998161117e565b81146111a457600080fd5b50565b6000813590506111b681611190565b92915050565b6000602082840312156111d2576111d1611154565b5b60006111e0848285016111a7565b91505092915050565b6000819050919050565b6111fc816111e9565b82525050565b600060208201905061121760008301846111f3565b92915050565b611226816111e9565b811461123157600080fd5b50565b6000813590506112438161121d565b92915050565b60006020828403121561125f5761125e611154565b5b600061126d84828501611234565b91505092915050565b6000806040838503121561128d5761128c611154565b5b600061129b858286016111a7565b92505060206112ac85828601611234565b9150509250929050565b600080fd5b600080fd5b6000601f19601f8301169050919050565b7f4e487b7100000000000000000000000000000000000000000000000000000000600052604160045260246000fd5b611309826112c0565b810181811067ffffffffffffffff82111715611328576113276112d1565b5b80604052505050565b600061133b61114a565b90506113478282611300565b919050565b600067ffffffffffffffff821115611367576113666112d1565b5b611370826112c0565b9050602081019050919050565b82818337600083830152505050565b600061139f61139a8461134c565b611331565b9050828152602081018484840111156113bb576113ba6112bb565b5b6113c684828561137d565b509392505050565b600082601f8301126113e3576113e26112b6565b5b81356113f384826020860161138c565b91505092915050565b6000806000806080858703121561141657611415611154565b5b600085013567ffffffffffffffff81111561143457611433611159565b5b611440878288016113ce565b945050602085013567ffffffffffffffff81111561146157611460611159565b5b61146d878288016113ce565b935050604061147e878288016111a7565b925050606061148f878288016111a7565b91505092959194509250565b600081519050919050565b600082825260208201905092915050565b60005b838110156114d55780820151818401526020810190506114ba565b838111156114e4576000848401525b50505050565b60006114f58261149b565b6114ff81856114a6565b935061150f8185602086016114b7565b611518816112c0565b840191505092915050565b61152c8161117e565b82525050565b7f4e487b7100000000000000000000000000000000000000000000000000000000600052602160045260246000fd5b6005811061157257611571611532565b5b50565b600081905061158382611561565b919050565b600061159382611575565b9050919050565b6115a381611588565b82525050565b600060c08201905081810360008301526115c381896114ea565b905081810360208301526115d781886114ea565b90506115e66040830187611523565b6115f36060830186611523565b6116006080830185611523565b61160d60a083018461159a565b979650505050505050565b7f4e487b7100000000000000000000000000000000000000000000000000000000600052603260045260246000fd5b7f4e487b7100000000000000000000000000000000000000000000000000000000600052602260045260246000fd5b6000600282049050600182168061168e57607f821691505b602082108114156116a2576116a1611647565b5b5091905056fea2646970667358221220aa591f49ebe1c1cdf772d1e187b554bc1da04cf091b1de59af9a2fad71addd8264736f6c634300080b0033",
  "immutableReferences": {},
  "source": "// SPDX-License-Identifier: MIT\r\npragma solidity >=0.4.22 <0.9.0;\r\n\r\ncontract SypplyChain{\r\n \r\n    enum Status{Created, Delivering, Delivered, Accepted, Decliened}\r\n \r\n    //Order[] public orders;\r\n    Order[]  orders;\r\n\r\n    mapping(address => uint256[]) public selfOrders;\r\n \r\n    struct Order{\r\n        string  title;\r\n        string  description;\r\n        address supplier;\r\n        address deliveryCompany;\r\n        address customer;\r\n        Status status;\r\n    }\r\n\r\n\r\n    event OrderCreated(\r\n        uint256 index,\r\n        address indexed deliveryCompany,\r\n        address indexed customer\r\n\r\n    );\r\n\r\n    event OrderDelivering(\r\n        uint256 index,\r\n        address indexed deliveryCompany,\r\n        address indexed customer\r\n\r\n    );\r\n\r\n    event OrderDelivered(\r\n        uint256 index,\r\n        address indexed deliveryCompany,\r\n        address indexed customer\r\n\r\n    );\r\n\r\n    event OrderAccepted(\r\n        uint256 index,\r\n        address indexed supplier,\r\n        address indexed deliveryCompany\r\n\r\n    );\r\n\r\n     event OrderDecliened(\r\n        uint256 index,\r\n        address indexed supplier,\r\n        address indexed deliveryCompany\r\n\r\n    );\r\n\r\n    \r\n \r\n    modifier onlyOrderDeliveringCompany(uint256 _index){\r\n        require(orders[_index].deliveryCompany == msg.sender);\r\n        _;\r\n    }\r\n \r\n    modifier orderCreated(uint256 _index)\r\n    {\r\n        require(orders[_index].status == Status.Created);\r\n        _;\r\n    }\r\n \r\n    modifier orderDelivering(uint256 _index)\r\n    {\r\n        require(orders[_index].status == Status.Delivering);\r\n        _;\r\n    }\r\n \r\n     modifier orderDelivered(uint256 _index)\r\n    {\r\n        require(orders[_index].status == Status.Delivered);\r\n        _;\r\n    }\r\n \r\n    modifier onlyCustomer(uint256 _index)\r\n    {\r\n      require(orders[_index].customer == msg.sender);\r\n        _;\r\n    }\r\n\r\n\r\n\r\n    function getOrderLength() public view returns(uint256){\r\n        return orders.length;\r\n\r\n    }\r\n\r\n\r\n    function getOrder(uint256 _index) public view returns (string memory, string memory, address, address, address, Status){\r\n\r\n        Order memory order = orders[_index];\r\n\r\n        return(order.title, order.description, order.supplier, order.deliveryCompany, order.customer, order.status);\r\n\r\n    }\r\n\r\n    function getSelfOrdersLength(address _address) public view returns(uint256){\r\n        return selfOrders[_address].length;\r\n\r\n    }\r\n \r\n    function createOrder(string memory _title, string memory _description, address _deliveryCompany, address _customer) public {\r\n         \r\n         Order memory order = Order ({\r\n \r\n                    title: _title,\r\n                    description: _description,\r\n                    supplier: msg.sender,\r\n                    deliveryCompany: _deliveryCompany,\r\n                    customer: _customer,\r\n                    status: Status.Created\r\n         });\r\n       \r\n         //uint256 index = orders.length+1;\r\n         //orders[index]= order;\r\n         //return index;\r\n         uint256 index = orders.length;\r\n         emit OrderCreated(index, _deliveryCompany, _customer);\r\n\r\n          orders.push(order);\r\n\r\n          selfOrders[msg.sender].push(index);\r\n          selfOrders[_deliveryCompany].push(index);\r\n          selfOrders[_customer].push(index);\r\n    }\r\n\r\n \r\n \r\n    function startDeliveringOrder(uint256 _index) public onlyOrderDeliveringCompany(_index) orderCreated(_index) {\r\n \r\n        Order storage order = orders[_index];\r\n        emit OrderDelivering(_index, order.supplier, order.customer);\r\n        order.status = Status.Delivering;\r\n \r\n    }\r\n \r\n    function stopDeliveringOrder(uint256 _index) public onlyOrderDeliveringCompany(_index) orderDelivering(_index){\r\n \r\n        Order storage order = orders[_index];\r\n          emit OrderDelivered(_index, order.supplier, order.customer);\r\n          order.status = Status.Delivered;\r\n \r\n    }\r\n \r\n    function acceptOrder(uint256 _index) public onlyCustomer(_index) orderDelivered(_index){\r\n         Order storage order = orders[_index];\r\n        emit OrderAccepted(_index, order.supplier, order.deliveryCompany);\r\n        orders[_index].status = Status.Accepted;\r\n \r\n    }\r\n \r\n    function declineOrder(uint256 _index) public onlyCustomer(_index) orderDelivered(_index){\r\n          Order storage order = orders[_index];\r\n        emit OrderDecliened(_index, order.supplier, order.deliveryCompany);\r\n        orders[_index].status = Status.Decliened;\r\n \r\n    }\r\n \r\n \r\n}\r\n",
  "sourcePath": "D:\\ETHEREUM\\PROJECTS\\Supply Chain Project\\supplychaintruffledaap\\contracts\\SupplyChain.sol",
  "compiler": {
    "name": "solc",
    "version": "0.8.11+commit.d7f03943.Emscripten.clang"
  },
  "schemaVersion": "3.4.4",
  "updatedAt": "2022-06-14T08:24:23.796Z",
  "devdoc": {
    "kind": "dev",
    "methods": {},
    "version": 1
  },
  "userdoc": {
    "kind": "user",
    "methods": {},
    "version": 1
  }
}